:1000000010C01895189518951CC418951895189532
:100010001895189518951895189518951895189578
:1000200018958FE58DBFC8E3E0E24E2E82E08EBFCB
:10003000D2E0F2E05F2EEEEFF1E0A0E6B0E088273C
:100040008D933197E9F766248FEF81BB8FEF87BBE4
:100050008FEF84BB8FEF8ABB789488E082BD85E008
:1000600085BD79B7706479BFAFE6B0E0E0E9F9E04B
:10007000C6D3B1D37FEF78BB81E080937B008FE163
:1000800080937D0085E580937F0086E080937E00ED
:100090000091600040916100040FA8E7B0E00C936C
:1000A0000091780040916200040FA8E7B0E00C9343
:1000B00000917800003009F036C0ADE7B0E08C91D7
:1000C0008F5F8C9300917D00003209F008C081E0C1
:1000D00080937D00AEE7B0E08C918F5F8C930091B0
:1000E0007E00063010F009F001C01AC000917D00BA
:1000F0000F3109F015C081E080937D00AEE7B0E0DC
:100100008C918F5F8C9300917E000D3009F008C0B8
:10011000AFE7B0E08C918F5F8C9381E080937E009D
:10012000E2E0F0E03AD3809160008093780026D03E
:10013000809161008093780043D080916200809329
:10014000780060D080917D00809378007DD0809190
:100150007E00809378009AD09BCFF894FFCFAD9B20
:1001600002C0AD9801C0AD9AE8E0F3E0A0E6B0E0CF
:100170008C919927ABE3B0E057D30895A9D0C098EC
:10018000EEEFF2E0AAE7B0E08C919927A2E3B0E0AD
:100190004BD3ABE7B0E08C9199270ED3C09AC198AE
:1001A000EEEFF2E0A9E7B0E08C919927A2E3B0E08E
:1001B0003BD3ABE7B0E08C919927FED2C19A08956A
:1001C00087D0C298EEEFF2E0AAE7B0E08C919927D1
:1001D000A2E3B0E029D3ABE7B0E08C919927ECD251
:1001E000C29AC398EEEFF2E0A9E7B0E08C919927AC
:1001F000A2E3B0E019D3ABE7B0E08C919927DCD251
:10020000C39A089565D0C498EEEFF2E0AAE7B0E093
:100210008C919927A2E3B0E007D3ABE7B0E08C91D3
:100220009927CAD2C49AC598EEEFF2E0A9E7B0E0E8
:100230008C919927A2E3B0E0F7D2ABE7B0E08C91C4
:100240009927BAD2C59A089543D0C698EEEFF2E046
:10025000AAE7B0E08C919927A2E3B0E0E5D2ABE742
:10026000B0E08C919927A8D2C69AC798EEEFF2E039
:10027000A9E7B0E08C919927A2E3B0E0D5D2ABE733
:10028000B0E08C91992798D2C79A089521D0A89868
:10029000EEEFF2E0AAE7B0E08C919927A2E3B0E09C
:1002A000C3D2ABE7B0E08C91992786D2A89AA998DF
:1002B000EEEFF2E0A9E7B0E08C919927A2E3B0E07D
:1002C000B3D2ABE7B0E08C91992776D2A99A089582
:1002D000009178004AE04CD3A9E7B0E00C9300917C
:1002E00079004AE039D3AAE7B0E04C930091780056
:1002F00040917A00041BAAE7B0E00C9308957E3089
:100300006D79335B5F707F7B0008101820283038D0
:100310000109111921293139020A121A222A323A05
:10032000030B131B232B333B040C141C242C343CD5
:10033000050D151D252D353D060E161E262E363EA5
:10034000070F171F98989594929167666463606091
:100350005D5C5A5957565353504F4D4C4A49464687
:100360004342403F3D3C3A393736343331302E2D0D
:1003700003020000FDFCFBF9F8F7F6F4F3F2F1F0EC
:10038000EFEEEDECEBEAE9E8E7E7E6E5E5E4E3E3E9
:10039000E2E2E1E1E1E0E0E0E0E0E0E0E0E0E0E056
:1003A000E0E0E1E1E1E2E2E3E3E4E4E5E6E6E7E818
:1003B000E9E9EAEBECEDEEEFF0F1F2F3F4F5F6F744
:1003C000F8F9FBFCFDFEFF0001042C2E2E3031332A
:1003D00033353537383A3A3C3C3E3E41414343455C
:1003E00045474749494B4B4E4E5050525254545634
:1003F00056585759595B5B5D5D5F5F61616362642D
:100400006466666890929193939595979798989A59
:100410009A9C9C9D9D9F9FA1A1A3A2A4A4A6A6A8CF
:10042000A8A9A9ABABADADAFAEB0B0B2B2B4B4B6E3
:10043000B6B7B7B9B9BBBBBDBDBEBEC0C0C2C2C4F2
:10044000C3C5C5C7C7C8C8CACACBCBF5F5F6F6F849
:10045000F7F9F9FAFAFBFBFCFCFDFDFEFEFFFE00DE
:10046000FF00FF0100020002010301030103010379
:10047000000200020001FF00FEFFFEFEFDFDFCFC8D
:10048000FBFBF9FAF8F8F6F7F5F5CBCBC9C9C8C804
:10049000C6C5C3C3C1BFBFBFBDBCBABAB8B7B5B587
:1004A000B3B2B0AFADADAAAAA7A7A4A4A1A19E9EC6
:1004B0009B01000000009898959492916766646390
:1004C00060605D5C5A5957565353504F4D4C4A49E2
:1004D00046464342403F3D3C3A393736343331306B
:1004E0002E2D03020000FDFCFBF9F8F7F6F4F3F201
:1004F000F1F0EFEEEDECEBEAE9E8E7E7E6E5E5E45D
:10050000E3E3E2E2E1E1E1E0E0E0E0E0E0E0E0E0DE
:10051000E0E0E0E0E1E1E1E2E2E3E3E4E4E5E6E6B5
:10052000E7E8E9E9EAEBECEDEEEFF0F1F2F3F4F5F0
:10053000F6F7F8F9FBFCFDFEFF0001042C2E2E302F
:10054000313333353537383A3A3C3C3E3E4141430E
:10055000434545474749494B4B4E4E5050525254E4
:10056000545656585759595B5B5D5D5F5F616163D7
:100570006264646666689092919393959597979854
:10058000989A9A9C9C9D9D9F9FA1A1A3A2A4A4A67A
:10059000A6A8A8A9A9ABABADADAFAEB0B0B2B2B48E
:1005A000B4B6B6B7B7B9B9BBBBBDBDBEBEC0C0C29D
:1005B000C2C4C3C5C5C7C7C8C8CACACBCBF5F5F640
:1005C000F6F8F7F9F9FAFAFBFBFCFCFDFDFEFEFF7D
:1005D000FE00FF00FF01000200020103010301030E
:1005E0000103000200020001FF00FEFFFEFEFDFD10
:1005F000FCFCFBFBF9FAF8F8F6F7F5F5CBCBC9C92B
:10060000C8C8C6C5C3C3C1BFBFBFBDBCBABAB8B7EF
:10061000B5B5B3B2B0AFADADAAAAA7A7A4A4A1A126
:100620009E9E9B01000000009898959492916766A9
:10063000646360605D5C5A5957565353504F4D4C3C
:100640004A4946464342403F3D3C3A3937363433C7
:1006500031302E2D03020000FDFCFBF9F8F7F6F413
:10066000F3F2F1F0EFEEEDECEBEAE9E8E7E7E6E5CF
:10067000E5E4E3E3E2E2E1E1E1E0E0E0E0E0E0E064
:10068000E0E0E0E0E0E0E1E1E1E2E2E3E3E4E4E550
:10069000E6E6E7E8E9E9EAEBECEDEEEFF0F1F2F39C
:1006A000F4F5F6F7F8F9FBFCFDFEFF0001042C2E33
:1006B0002E30313333353537383A3A3C3C3E3E41C3
:1006C0004143434545474749494B4B4E4E50505295
:1006D0005254545656585759595B5B5D5D5F5F6184
:1006E000616362646466666890929193939595974E
:1006F0009798989A9A9C9C9D9D9F9FA1A1A3A2A424
:10070000A4A6A6A8A8A9A9ABABADADAFAEB0B0B238
:10071000B2B4B4B6B6B7B7B9B9BBBBBDBDBEBEC047
:10072000C0C2C2C4C3C5C5C7C7C8C8CACACBCBF537
:10073000F5F6F6F8F7F9F9FAFAFBFBFCFCFDFDFE1D
:10074000FEFFFE00FF00FF010002000201030103A3
:1007500001030103000200020001FF00FEFFFEFE94
:10076000FDFDFCFCFBFBF9FAF8F8F6F7F5F5CBCB51
:10077000C9C9C8C8C6C5C3C3C1BFBFBFBDBCBABA5B
:10078000B8B7B5B5B3B2B0AFADADAAAAA7A7A4A488
:10079000A1A19E9E9B010000000088EE93E00CD07A
:1007A0003197D9F708953197F1F70895689462F871
:1007B0000895E89462F80895EF93FF93EE27E82BED
:1007C000E92B31F0EAEFF0E03197F1F70197D1F73B
:1007D000FF91EF910895EFE6F0E0A0E6B0E002C0EF
:1007E000ADE0BB278681978122D00D9383819481D0
:1007F0001ED00D93808191811AD00D93089504D05D
:100800000D920020E1F70895C895319600200895D3
:1008100091E005C092E003C094E001C098E0F4DFED
:100820000D929A95E1F70895E80FF91FF1CF8053E3
:1008300090530027813018F0065F8A95FBCF090F8F
:100840000895AF93BF930F939F938F938FB78F9319
:10085000A0E6B0E08C9183958D938C3309F03DC078
:1008600088278E9311968C9183958D938C3309F004
:1008700034C088278E9311968C9183958D938831FF
:1008800061F588278E9311968C9183958D939C9119
:100890000EE1943089F0963079F0993069F09B3010
:1008A00059F00CE1923039F411969C9111979370A4
:1008B00019F4039501C00FE1801778F071F081E021
:1008C0008E9311968C9183958D938D3031F481E0C8
:1008D0008E9311968C9183958C938F918FBF8F916E
:1008E0009F910F91BF91AF910F921F922F923F92C4
:1008F0004F925F927F92AF92BF920F931F932F936D
:100900003F934F935F936F937F938F939F93AF9397
:10091000BF93CF93DF93EF93FF938FB78F931FDC3A
:100920008F918FBFFF91EF91DF91CF91BF91AF91E9
:100930009F918F917F916F915F914F913F912F91F7
:100940001F910F91BF90AF907F905F904F903F901D
:100950002F901F900F901895FF935527F8E046951C
:1009600008F4500F57954795FA95D1F7FF910895E0
:10097000FF93881BF9E0001FFA9511F4FF91089589
:10098000881F841B18F4840F8894F5CF0894F3CF44
:0A09900032333A35393A30300000B6
:00000001FF
